{
  "contractName": "TodoList",
  "abi": [
    {
      "inputs": [],
      "payable": false,
      "stateMutability": "nonpayable",
      "type": "constructor"
    },
    {
      "anonymous": false,
      "inputs": [
        {
          "indexed": false,
          "internalType": "uint256",
          "name": "id",
          "type": "uint256"
        },
        {
          "indexed": false,
          "internalType": "bool",
          "name": "complete",
          "type": "bool"
        }
      ],
      "name": "TaskCompleted",
      "type": "event"
    },
    {
      "anonymous": false,
      "inputs": [
        {
          "indexed": false,
          "internalType": "uint256",
          "name": "id",
          "type": "uint256"
        },
        {
          "indexed": false,
          "internalType": "string",
          "name": "content",
          "type": "string"
        },
        {
          "indexed": false,
          "internalType": "bool",
          "name": "completed",
          "type": "bool"
        }
      ],
      "name": "TaskCreated",
      "type": "event"
    },
    {
      "constant": true,
      "inputs": [
        {
          "internalType": "uint256",
          "name": "",
          "type": "uint256"
        }
      ],
      "name": "Tasks",
      "outputs": [
        {
          "internalType": "uint256",
          "name": "id",
          "type": "uint256"
        },
        {
          "internalType": "string",
          "name": "content",
          "type": "string"
        },
        {
          "internalType": "bool",
          "name": "complete",
          "type": "bool"
        }
      ],
      "payable": false,
      "stateMutability": "view",
      "type": "function"
    },
    {
      "constant": true,
      "inputs": [],
      "name": "taskCount",
      "outputs": [
        {
          "internalType": "uint256",
          "name": "",
          "type": "uint256"
        }
      ],
      "payable": false,
      "stateMutability": "view",
      "type": "function"
    },
    {
      "constant": false,
      "inputs": [
        {
          "internalType": "string",
          "name": "_content",
          "type": "string"
        }
      ],
      "name": "createTasks",
      "outputs": [],
      "payable": false,
      "stateMutability": "nonpayable",
      "type": "function"
    },
    {
      "constant": false,
      "inputs": [
        {
          "internalType": "uint256",
          "name": "_id",
          "type": "uint256"
        }
      ],
      "name": "toggleComplete",
      "outputs": [],
      "payable": false,
      "stateMutability": "nonpayable",
      "type": "function"
    }
  ],
  "bytecode": "0x60806040526000805534801561001457600080fd5b5060408051808201909152600b81526a496e6974616c205461736b60a81b6020820152610049906001600160e01b0361004e16565b61020d565b600080546001908101808355604080516060810182528281526020808201878152828401879052938652848152919094208451815591518051929361009b93908501929190910190610172565b5060408201518160020160006101000a81548160ff0219169083151502179055509050507f05d0fb833127fc08168556d0e7ca9554fc3f6bc843b3b7d2bf1c35aea6bab660600054826000604051808481526020018060200183151515158152602001828103825284818151815260200191508051906020019080838360005b8381101561013357818101518382015260200161011b565b50505050905090810190601f1680156101605780820380516001836020036101000a031916815260200191505b5094505050505060405180910390a150565b828054600181600116156101000203166002900490600052602060002090601f016020900481019282601f106101b357805160ff19168380011785556101e0565b828001600101855582156101e0579182015b828111156101e05782518255916020019190600101906101c5565b506101ec9291506101f0565b5090565b61020a91905b808211156101ec57600081556001016101f6565b90565b6106038061021c6000396000f3fe608060405234801561001057600080fd5b506004361061004c5760003560e01c80630951e5bd14610051578063b6cb58a514610070578063c45d2e001461008a578063f4b2a46e14610130575b600080fd5b61006e6004803603602081101561006757600080fd5b50356101d7565b005b610078610337565b60408051918252519081900360200190f35b61006e600480360360208110156100a057600080fd5b8101906020810181356401000000008111156100bb57600080fd5b8201836020820111156100cd57600080fd5b803590602001918460018302840111640100000000831117156100ef57600080fd5b91908080601f01602080910402602001604051908101604052809392919081815260200183838082843760009201919091525092955061033d945050505050565b61014d6004803603602081101561014657600080fd5b5035610461565b604051808481526020018060200183151515158152602001828103825284818151815260200191508051906020019080838360005b8381101561019a578181015183820152602001610182565b50505050905090810190601f1680156101c75780820380516001836020036101000a031916815260200191505b5094505050505060405180910390f35b6101df610510565b60008281526001602081815260409283902083516060810185528154815281840180548651600296821615610100026000190190911695909504601f810185900485028601850190965285855290949193858401939092908301828280156102885780601f1061025d57610100808354040283529160200191610288565b820191906000526020600020905b81548152906001019060200180831161026b57829003601f168201915b50505091835250506002919091015460ff161515602091820152604080830180511590526000858152600180845291902083518155838301518051949550859491936102d993850192910190610533565b50604091820151600291909101805460ff1916911515919091179055818101518151848152901515602082015281517fe21fa966ca5cd02748c0752352d18c48165e61cb55b4c29cccf924b5a95fcff1929181900390910190a15050565b60005481565b600080546001908101808355604080516060810182528281526020808201878152828401879052938652848152919094208451815591518051929361038a93908501929190910190610533565b5060408201518160020160006101000a81548160ff0219169083151502179055509050507f05d0fb833127fc08168556d0e7ca9554fc3f6bc843b3b7d2bf1c35aea6bab660600054826000604051808481526020018060200183151515158152602001828103825284818151815260200191508051906020019080838360005b8381101561042257818101518382015260200161040a565b50505050905090810190601f16801561044f5780820380516001836020036101000a031916815260200191505b5094505050505060405180910390a150565b600160208181526000928352604092839020805481840180548651600296821615610100026000190190911695909504601f810185900485028601850190965285855290949193929091908301828280156104fd5780601f106104d2576101008083540402835291602001916104fd565b820191906000526020600020905b8154815290600101906020018083116104e057829003601f168201915b5050506002909301549192505060ff1683565b604051806060016040528060008152602001606081526020016000151581525090565b828054600181600116156101000203166002900490600052602060002090601f016020900481019282601f1061057457805160ff19168380011785556105a1565b828001600101855582156105a1579182015b828111156105a1578251825591602001919060010190610586565b506105ad9291506105b1565b5090565b6105cb91905b808211156105ad57600081556001016105b7565b9056fea265627a7a72315820796f98b00fe1c8592353de4b831ef37e87b23dae3ac68536709720ddb95ed6d864736f6c63430005100032",
  "source": "pragma solidity ^0.5.16;\r\n\r\ncontract TodoList{\r\n    uint public taskCount = 0;\r\n    \r\n    constructor() public{\r\n        createTasks(\"Inital Task\");\r\n    }\r\n\r\n    struct Task{\r\n        uint id;\r\n        string content;\r\n        bool complete;\r\n    }\r\n\r\n    event TaskCreated(\r\n        uint id,\r\n        string content,\r\n        bool completed\r\n    );\r\n\r\n    event TaskCompleted(\r\n        uint id,\r\n        bool complete\r\n    );\r\n\r\n    mapping(uint => Task) public Tasks;\r\n\r\n    function createTasks(string memory _content) public{\r\n        taskCount++;\r\n        Tasks[taskCount] = Task(taskCount, _content, false);\r\n        emit TaskCreated(taskCount, _content, false);\r\n    }\r\n\r\n    function toggleComplete(uint _id) public{\r\n        Task memory _task = Tasks[_id];\r\n        _task.complete = !_task.complete;\r\n        Tasks[_id] = _task;\r\n        emit TaskCompleted(_id, _task.complete);\r\n    }\r\n}",
  "sourcePath": "C:/Users/dell-pc/Desktop/Todo-List/contracts/TodoList.sol",
  "compiler": {
    "name": "solc",
    "version": "0.5.16+commit.9c3226ce.Emscripten.clang"
  },
  "schemaVersion": "3.2.3",
  "updatedAt": "2021-06-25T19:06:16.656Z",
  "networkType": "ethereum",
  "devdoc": {
    "methods": {}
  },
  "userdoc": {
    "methods": {}
  }
}